:060000000A128A11FC2F18
:100EE4008030831603139F004130831203139F0045
:100EF400831603130711FC30831203139205F93090
:100F04008316031392008312031312150C309700F7
:100F140008007108F3007008F2000310F30CF20CDF
:100F24000310F30CF20C720883120313950070087B
:100F34000339F20004300310F20DFF3E031D9D2F10
:100F44001708CF39720497000800F300C5308312E4
:100F540003139F057308F20002300310F20DFF3EE5
:100F6400031DAF2F0310720D9F040630F200F20B25
:100F7400B92F0000831203131F151F19C22FC32F8B
:100F8400BF2F1E08F100831603131E08F00008008B
:100F94000A128A1172270A128A1100300A128A115F
:100FA400A7270A128A117108F7007008F6000330A7
:100FB4007702E93003197602031CE12FE22FE62FB2
:100FC400E830F6000330F7007708F1007608F00007
:100FD4000A128A118B270A128A110D30F500FB3090
:100FE400F400F40BF32FF50BF32FF82FCF2F0A1285
:0C0FF4008A11002883010A128A11CA2FFA
:02400E00793FF8
:00000001FF
