:060000000A128A110C280F
:10000800FE00030EFA000A08FB000A128A111F28D4
:100018000A128A110F2883120313A001A101A20159
:10002800A301A401A501A601A701A801A9018301B3
:100038000A128A11BC28831203130C1C24282528B1
:1000480028280130A9070C100C1D2B282C28B528AE
:100058001608A7001508A60024082602AA002508E5
:10006800031C250A2702AB00AC01AD0125082702B5
:10007800031D4028240826020318432844287D2805
:100088002A08F0002B08F1002C08F2002D08F300D4
:100098002908FF3EF400FF3003180030F50074080B
:1000A800F6007508F700F801F90110300310F60D95
:1000B800F70DF80DF90DFF3E031D5A287608F007D5
:1000C80077080318770F69286A28F1077808031852
:1000D800780F6F287028F20779080318790AF30750
:1000E8007308A3007208A2007108A1007008A0009C
:1000F800AD282A08F0002B08F1002C08F2002D0882
:10010800F3002908F400F501F601F7011030031097
:10011800F40DF50DF60DF70DFF3E031D8B28740841
:10012800F00775080318750F9A289B28F1077608B9
:100138000318760FA028A128F20777080318770A72
:10014800F3077308A3007208A2007108A1007008E1
:10015800A000A9012708A5002608A4000130A800CE
:100168000C117B088A007A0E8300FE0E7E0E0900B1
:100178008316031307150810831203130810CF30D2
:10018800900590101014053097000C108316031377
:100198000C140C150B178B17831228080319D52874
:1001A800D628D0282308031DE8282208031DE8289C
:1001B80001302102031DE428F2302002031DE42847
:1001C800031CE728E8280029831203132308031DCA
:1001D800FB282208031DFB2801302102031DF828F3
:1001E800F7302002031DF8280318FB28FC280029F3
:1001F8008312031308140329831203130810A80198
:08020800D0280A128A110C280B
:02400E00793FF8
:00000001FF
