:060000000A128A11FC2F18
:100F54008030831603139F004130831203139F00D4
:100F640008000630F200F20BB52F000083120313C1
:100F74001F151F19BE2FBF2FBB2F1E08F10083168C
:100F840003131E08F00008000A128A11AA270A1285
:100F94008A118316031388010A128A11B3270A12CD
:100FA4008A117108F4007008F30083120313880196
:100FB40001307402343003197302031CE22FE32F4F
:100FC400E42F081402307402673003197302031CFF
:100FD400EC2FED2FEE2F8814033074029A3003198E
:100FE4007302031CF62FF72FCE2F0815CE2F0A12EB
:0C0FF4008A11002883010A128A11C62FFE
:00000001FF
