:060000000A128A110C280F
:10000800FE00030EF3000A08F4000A128A111628EB
:100018000A128A110F28F001F101F20183010A1274
:100028008A114F288B1C19281A2848287208031D82
:100038001E281F282C288312031310108F018E01ED
:100048000C1010148316031301170130F20047280F
:100058008312031310100F08F1000E08F0000C189B
:10006800362837284028F4307102253003197002E9
:10007800031C3F28402842280814432808108316E8
:1000880003130113F2018B1074088A00730E8300A6
:10009800FE0E7E0E09008316031306140810831241
:1000A80003130810303090049010831603130113C3
:0C00B8000B168B175E280A128A110C2808
:02400E00793FF8
:00000001FF
