:060000000A128A110C280F
:10000800FE00030EF0000A08F1000A128A114528C2
:100018000A128A110F28F401F50183010A128A11C4
:10002800152883160313061008108312031386017C
:1000380088018316031381128111073081043D3032
:100048008312031381008B168B1783120313081472
:100058008230F300DD30F200F20B3028F30B302849
:1000680035288312031308108230F300DD30F200C4
:10007800F20B3C28F30B3C28412829280A128A1144
:100088000C280B1D482849286C283D30831203137F
:1000980081000130F4070318F50A0030F507003035
:1000A8007502143003197402031C5B285C286B2842
:1000B8000310061C0314031862286628831203130E
:1000C80006146928831203130610F401F5010B11B5
:0E00D80071088A00700E8300FE0E7E0E090075
:00000001FF
