:060000000A128A11FC2F18
:100E8200F1004A2FC730F000462FF00B452F492FB3
:100E92004A2F0130F102710A031D502F512F432FA7
:100EA2000800831603130711061486148113FC30FD
:100EB200831203139205F9308316031392008312EF
:100EC2000313121595010C309700F401F5018312FA
:100ED200031306186D2F6E2FB12F0F300A128A11CD
:100EE20041270A128A11831203130618792F7A2FC7
:100EF200B12F033075028530031974020318822F53
:100F0200832F8A2F6430F4070318F50A0030F5079F
:100F12008E2FE830F4000330F5007508F3007408F2
:100F2200F2000310F30CF20C0310F30CF20C720833
:100F3200950074080339F20004300310F20DFF3EED
:100F4200031D9E2F1708CF3972049700061CAA2F83
:100F5200AB2FA72F0F300A128A1141270A128A11CA
:100F6200831203138618B62FB72F682F0F300A1279
:100F72008A1141270A128A11831203138618C22F7B
:100F8200C32F682F00307502643003197402031CEA
:100F9200CB2FCC2FD32F6430F4020030031CF50387
:100FA200F502D52FF401F5017508F3007408F2007B
:100FB2000310F30CF20C0310F30CF20C7208950000
:100FC20074080339F20004300310F20DFF3E031DD2
:100FD200E52F1708CF3972049700861CF12FF22FE4
:100FE200EE2F0F300A128A1141270A128A11682F36
:0E0FF2000A128A11002883010A128A11522F56
:02400E00793FF8
:00000001FF
