:060000000A128A110C280F
:10000800FE00030EF4000A08F5000A128A111728E8
:100018000A128A110F28F001F101F201F30183019C
:100028000A128A1155280B1D1A281B2832288312F8
:10003800031381010130F2070318F30A0030F307B4
:10004800003073020F3003197202031C2C282D286C
:10005800312801308606F201F3010B1183120313D4
:100068000C1C372838284E288F018E010130F007E4
:100078000318F10A0030F107003071020430031947
:100088007002031C482849284D2804308606F001D0
:10009800F1010C1075088A00740E8300FE0E7E0EA6
:1000A80009008316031306100611081083120313A0
:1000B80086018801831603138112811101148114AA
:1000C8000115831203138101901010169016101455
:1000D8008F018E018B178B160B17831603130C14C5
:1000E8008312031308148230F700DD30F600F60B94
:1000F8007B28F70B7B288028831203130810823093
:10010800F700DD30F600F60B8728F70B87288C28D8
:0801180074280A128A110C2858
:00000001FF
