:060000000A128A110C280F
:10000800FE00030EFA000A08FB000A128A112028D3
:100018000A128A110F2883120313A001A101A20159
:10002800A301A401A501A601A701A801A901AA018C
:1000380083010A128A11BE28831203130C1C252877
:1000480026282D280130A4070318A50A0030A50783
:100058000C100C1D30283128B7281608A7001508E1
:10006800A60028082602FC002908031C290A2702E2
:10007800FD0029082702031D432828082602031823
:10008800462847287F287C08F0007D08F100F20107
:10009800F3012408FF3EF40025080318013EFF3E43
:1000A800F5007408F6007508F700F801F90110303A
:1000B8000310F60DF70DF80DF90DFF3E031D5C2832
:1000C8007608F00777080318770F6B286C28F10774
:1000D80078080318780F71287228F207790803182E
:1000E800790AF3077308A3007208A2007108A10037
:1000F8007008A000AE287C08F0007D08F100F2012D
:10010800F3012408F4002508F500F601F701103082
:100118000310F40DF50DF60DF70DFF3E031D8C28A9
:100128007408F00775080318750F9B289C28F107B9
:1001380076080318760FA128A228F2077708031873
:10014800770AF3077308A3007208A2007108A100D8
:100158007008A000A401A5012708A9002608A80086
:100168000130AA000C117B088A007A0E8300FE0E6B
:100178007E0E090083160313071508108312031354
:1001880008100130900005309700831603130C14F3
:100198000C150B178B1783122A080319D428D52896
:1001A800CF28AA012308031DE92801302202031DD4
:1001B800E52886302102031DE5283C302002031D76
:1001C800E528031CE828E9280229831203132308D9
:1001D800031DFD2801302202031DFA288730210261
:1001E800031DFA2805302002031DFA280318FD28EC
:1001F800FE280229831203130814CF28831203133D
:0A0208000810CF280A128A110C28F2
:00000001FF
